:1000000003308A00E72B00000C00D4326D386539CC
:10001000613A753961004122431D251ACC3A202AE4
:10002000BA12342664002F308400831300080319A9
:1000300027280130F800F701F70B1C28F80B1B28C4
:100040004A30F700F70B22282528800B19280800D2
:1000500036182C2808122D28081683160812831229
:10006000B618342888123528881683168812831209
:1000700036193C2808133D280817831608138312E5
:10008000B61944288813452888178316881300005A
:1000900083120814831608104D2883120810831643
:1000A000081083120800B701831608160030831267
:1000B000081A0130B7048316881600308312881A94
:1000C0000130F7000310F70D7708B70483160817FF
:1000D00000308312081B0130F700F70DF70DFC30DC
:1000E000F7057708B7048316881700308312881B3A
:1000F0000130F700F70DF70DF70DF830F705770829
:10010000B7043708F8000800831608108810081193
:100110008312881083168810081688160817881707
:100120008312081583160811000083120814831621
:1001300008100000831253207808B60008108316B8
:1001400008100000831208148316081000008312A0
:1001500053207808B500081083160810081288127A
:10016000081388138312360EF700F030F70577086E
:100170003504F8007808B500B51FC02883168C2810
:10018000B308031DC5288810C62888148316881054
:100190000000831208118316081100008312081052
:1001A000831608108312340EB5000F30B5053508DC
:1001B000B600282034080F39B500B6002820080002
:1001C0002830A6000C30A7000130A8000630A90096
:1001D0000810831608108312881083168810831263
:1001E00008118316081108128812081388130810C2
:1001F000881008110F308312AF0013200130A500C2
:100200002508033C031C0C290330B60028200530C8
:10021000AF001320A50A00290230B60028200530BF
:10022000AF001320A5012508033C031C2329263019
:100230002507840083130008AA00B3012A08B4002C
:100240008420A50A13298A110A12F82B300B2929B8
:100250002C294030B1002D29B10101302F02B10706
:1002600031088038B200B3013208B400842008009D
:100270002E08073A031946290B3A03194B29063A67
:1002800003195329023A031959295E290130AF0095
:10029000B00026216329B3010130B400842002306C
:1002A000AF00132063290130AF000230B0002621D7
:1002B0006329B3011030B400842063290130B300F6
:1002C0002E08B400842008000B08A5008B138316A9
:1002D00003178C170C140000000083120313A51BD6
:1002E0008B1703170C087F390319B8290313A500CE
:1002F00003170D080313A60003170F080313A70025
:100300002508AE003821260803178D00031327089F
:1003100003178F0003130B08A8008B138316031712
:100320008C170C140000000083120313A81B8B17FA
:1003300003170C0D0E0D7F390319B8290313A500FF
:1003400003170D080313A60003170F080313A700D4
:100350002508AE003821260803178D00031327084F
:1003600003178F008D0A03198F0A031364290317DB
:10037000031308002B082D02AF002E08B0002C0834
:10038000031C2C0FB00227082502F7002608FA00EC
:100390002808031C280FFA027708F7007A08F800EB
:1003A000F901FA017A08B4007908B3007808B200BC
:1003B0007708B100B801B7013008B6002F08B500C2
:1003C0003408BC003308BB003208BA003108B90059
:1003D0002030C100BD01BE01BF01C0013808FA00D4
:1003E0003708F9003608F8003508F7000310771CC5
:1003F000072A3908BD073A0803183A0FBE073B0819
:1004000003183B0FBF073C0803183C0FC007C00C84
:10041000BF0CBE0CBD0CFA0CF90CF80CF70CC10BA0
:10042000F6297A08B2007908B1007808B000770898
:10043000AF0027082902F7002A08FA002808031C41
:10044000280FFA027708B3007A08B4008310320844
:10045000B8003108B7003008B6002F08B500BC015D
:10046000BB013408BA003308B90083183A2A3D307A
:1004700084008313F701F801F901FA01BD01BE01FF
:10048000BF01C0013C083B043A0439040319782A2F
:100490002030C1000310B50DB60DB70DB80DBD0D60
:1004A000BE0DBF0DC00D3C084002031D612A3B0874
:1004B0003F02031D612A3A083E02031D612A3908E2
:1004C0003D02031C722A3908BD023A08031C3A0F88
:1004D000BE023B08031C3B0FBF023C08031C3C0F41
:1004E000C0020314F70DF80DF90DFA0DC10B4A2ADD
:1004F0003D088000840A3E088000840A3F0880008E
:10050000840A400880007A08B2007908B1007808AF
:10051000B0007708AF002B087707F7007808F800DD
:100520002C0803182C0FF8077908F900003003187D
:100530000130F9077A08FA00003003180130FA0791
:100540007808F9007708F8008A110A123C2C0B0889
:10055000A6008B13831603178C170C1400000000E1
:1005600083120313A61B8B170318DE2A03170C082C
:100570007F390313A60003170D080313A700031701
:100580000F080313A8002608AE0038212708031718
:100590008D000313280803178F0003130B08A9000D
:1005A0008B13831603178C170C14000000008312A2
:1005B0000313A91B8B17A50BDE2AFD2A03170C0DAD
:1005C0000E0D7F390313A60003170D080313A700B0
:1005D00003170F080313A8002608AE0038212708C8
:1005E00003178D000313280803178F008D0A0319C2
:1005F0008F0A03100313A50BA72A8A110A124F2C86
:10060000AD010408AC002D10831B2D14260EF0380C
:10061000A800A807E23EA900323EAB0026080F3929
:10062000A907A907AB07E93EAA00AA07AA07250E52
:100630000F39AA07AB07AA0DAB0DAB09AB0D250807
:100640000F39AB07A80D0730A7000A30AB07AA0384
:10065000031C262BAA07A903031C2A2BA907A803FE
:10066000031C2E2BA807A703031C322B2730840062
:10067000831307302C052C1384072B300402031935
:100680002C170008F700031D4D2B2C1B4D2B2C1A8B
:100690005F2BAC194D2B2030502BAC152C12303069
:1006A000F707A6010408A5002610831B2614770867
:1006B000AE00382125088400831326188317840A86
:1006C0002C1F3D2B8A110A12562CAD010408AC00D8
:1006D0002D10831B2D14A61F752BAC172C1EAC0AD6
:1006E000A509A609A50A0319A60A260EF038A8002E
:1006F000A807E23EA900323EAB0026080F39A90741
:10070000A907AB07E93EAA00AA07AA07250E0F39D9
:10071000AA07AB07AA0DAB0DAB09AB0D25080F3926
:10072000AB07A80D0730A7000A30AB07AA03031CCC
:10073000952BAA07A903031C992BA907A803031C3F
:100740009D2BA807A703031CA12B2730840083132C
:1007500007302C052C1384032C05031DB62B2C1AF3
:10076000840A2C1AB62B2030F700D32B84072B30A9
:10077000040203192C170008F700031DC72B2C1BBC
:10078000C72B2C1AE12BAC19C72B2030D22BAC1F56
:10079000CF2B2D30F70084032C13AC13D32BAC15C7
:1007A0002C123030F707A6010408A5002610831B81
:1007B00026147708AE0038212508840083132618F4
:1007C0008317840A2C1FB72B8A110A12662C030880
:1007D0001F39830083161F149F141F159F110730A4
:1007E0009C0083138312A201A101A401A301E028AC
:1007F00083161F109F141F159F151F1383121F1799
:100800009F1783169F1783121F14043003178D0040
:1008100000308F00031364210130AF00B0002621A7
:10082000053003178D0000308F0003136421003062
:10083000F8001F08C73978049F001F151F191E2CC8
:1008400083161E088312A1001E08A2000630F700BE
:10085000F70B282C00002208A6002108A500A801FB
:10086000A7010330AA00FF30A900AC01AB010130A1
:10087000AE00F430AD00BA297908A4007808A300CE
:100880000130AF000230B00026210B3003178D007D
:1008900000308F00031004300313A500A72A013095
:1008A00084002208A6002108A500002B2030AE00FD
:1008B00038215430AE0038213A30AE0038210230B1
:1008C00084002408A6002308A500652B172C6300CC
:02400E00713F00
:00000001FF
;PIC16F877A
;CRC=3468  CREATED="20-May-25 23:28"
